:020000040000FA
:060000000A128A11122809
:10000800FE00030E83120313C4000408C5000A0887
:10001800C6007F08C7000A128A11F12D0A128A1138
:10002800152883135C30FD000730FE001530FF00F3
:10003800483084000A128A112D270A128A11DC011D
:10004800DD01DE01DF0183010A128A11A82E831265
:10005800031323088039AD002308A8002807B3003C
:10006800A21F3728382839283314330803193D28A4
:100078003E284D28330A031D422843284B280030C8
:10008800A3000030A2000030A1000030A000A21799
:1000980055280030A3000030A2000030A100003035
:1000A800A00027088039FF007F08AD062708A800B0
:1000B8002807B200A61F6128622863283214320874
:1000C8000319672868287728320A031D6C286D28C9
:1000D80075280030A7000030A6000030A5000030C9
:1000E800A400A6177F280030A7000030A600003023
:1000F800A5000030A4003208031983288428892821
:100108003308031D8828892892280030A30000306E
:10011800A2000030A1000030A0006F2B2008F000E2
:1001280026080A128A11D4260A128A117108831223
:100138000313B9007008B8003808A800A901AA017B
:10014800AB012B08B1002A08B0002908AF00280825
:10015800AE003908A800A901AA01AB012B08B70015
:100168002A08B6002908B5002808B4002108F000BC
:1001780025080A128A11D4260A128A1171088312D4
:100188000313B9007008B8003808A800A901AA012B
:10019800AB012808AE07290803110318013E03190B
:1001A800D628AF072A0803110318013E0319DD28D2
:1001B800B0072B0803110318013E0319E428B107FF
:1001C8003908A800A901AA01AB012808B407290821
:1001D80003110318013E0319F228B5072A08031171
:1001E8000318013E0319F928B6072B080311031851
:1001F800013E03190029B7072208F00024080A1253
:100208008A11D4260A128A11710883120313B900BD
:100218007008B8003808A800A901AA01AB0128088D
:10022800AE07290803110318013E03191C29AF075B
:100238002A0803110318013E03192329B0072B08C4
:1002480003110318013E03192A29B1073908A80028
:10025800A901AA01AB012808B4072908031103184A
:10026800013E03193829B5072A0803110318013E6E
:1002780003193F29B6072B0803110318013E031978
:100288004629B7070830A8000310AE0DAF0DB00D12
:10029800B10DA80B48292108F00024080A128A1178
:1002A800D4260A128A11710883120313B900700840
:1002B800B8003808A8003908A900AA01AB01280825
:1002C800AE07290803110318013E03196C29AF076B
:1002D8002A0803110318013E03197329B0072B08D4
:1002E80003110318013E03197A29B1072008F00009
:1002F80025080A128A11D4260A128A117108831253
:100308000313B9007008B8003808A8003908A90014
:10031800AA01AB012808AE07290803110318013EFA
:1003280003199729AF072A0803110318013E031977
:100338009E29B0072B0803110318013E0319A529AC
:10034800B1070830A8000310AE0DAF0DB00DB10D08
:10035800A80BA7292008F00024080A128A11D4261D
:100368000A128A11710883120313B9007008B800C1
:100378003808A8003908A900AA01AB012808AE0767
:10038800290803110318013E0319CB29AF072A08CE
:1003980003110318013E0319D229B0072B080311D2
:1003A8000318013E0319D929B1072108F0002608CE
:1003B8000A128A11D4260A128A11710883120313A9
:1003C800B9007008B8003808A8003908A900AA01BF
:1003D800AB012808B407290803110318013E0319C3
:1003E800F629B5072A0803110318013E0319FD2948
:1003F800B6072B0803110318013E0319042AB7078F
:100408002208F00025080A128A11D4260A128A1135
:10041800710883120313B9007008B8003808A800DF
:100428003908A900AA01AB012808B4072908031153
:100438000318013E0319212AB5072A0803110318D6
:10044800013E0319282AB6072B0803110318013E99
:1004580003192F2AB7072208F00026080A128A1162
:10046800D4260A128A11710883120313B90070087E
:10047800B8003808A8003908A900AA01AB0108305B
:100488000310A80DA90DAA0DAB0DFF3E031D442AAC
:100498002808B407290803110318013E0319552A2F
:1004A800B5072A0803110318013E03195C2AB60789
:1004B8002B0803110318013E0319632AB7072E08F6
:1004C800A8002F08A9003008AA003108AB0018308E
:1004D8000310AB0CAA0CA90CA80CFF3E031D6C2A38
:1004E8002808B407290803110318013E03197D2AB7
:1004F800B5072A0803110318013E0319842AB60711
:100508002B0803110318013E03198B2AB70708307B
:10051800A8000310AE0DAF0DB00DB10DA80B8D2ABC
:1005280033083207A800A901A90D2808823EB8009F
:1005380029080318013EFF3EB900BF2A0130A80070
:100548000310B40DB50DB60DB70DA80BA42AB11F35
:10055800AE2AAF2AB02A34140130A8000310AE0D19
:10056800AF0DB00DB10DA80BB22AFF30B8070318B4
:10057800B90AFF30B907B61FC22AC32AA22AB20194
:10058800B11FC72AC82AE42AFF302E05A800FF3069
:100598002F05A900FF303005AA007F303105AB00D8
:1005A8002B082A04290428040319DB2ADC2ADF2A59
:1005B800B201B20AE42A341CE22AE32AE42ADC2A39
:1005C80032080319E82AE92A1A2B0130B407003047
:1005D80003180130B507003003180130B6070030A2
:1005E80003180130B707371CFA2AFB2A1A2B3408DC
:1005F800A8003508A9003608AA003708AB00013062
:10060800AC002B0DAB0CAA0CA90CA80CAC0B052B41
:100618002B08B7002A08B6002908B5002808B40036
:100628000130B8070318B90A0030B9073908803A09
:10063800FF0080307F02031D232BFF303802031C8C
:10064800262B272B322B7F3083120313B7008030E1
:10065800B6000030B5000030B400632B83120313DA
:100668003908803AFF0080307F02031D3D2B01309E
:1006780038020318402B412B4D2B003083120313F3
:10068800B7000030B6000030B5000030B400AD014E
:10069800632B831203133808B300FF30B405FF300F
:1006A800B5057F30B6050030B705331C5C2B5D2BD4
:1006B8005E2BB6173308A8000310280CB7002D08C6
:1006C800FF007F08B7043708A3003608A2003508E2
:1006D800A1003408A00008000A30F0000030F10042
:1006E8007908F3007808F2000A128A114F260A12D4
:1006F8008A11710883120313A1007008A0000A3040
:10070800F0000030F1007908F3007808F2000A12CE
:100718008A118A250A128A11710883120313A90003
:100728007008A8000A30F0000030F1002908F30032
:100738002808F2000A128A114F260A128A11710833
:1007480083120313A3007008A2000A30F0000030DF
:10075800F1002908F3002808F2000A128A118A25F4
:100768000A128A11710883120313AB007008AA00D9
:100778000A30F0000030F1002B08F3002A08F200DC
:100788000A128A114F260A128A117108831203135A
:10079800A5007008A4000A30F0000030F1002B0812
:1007A800F3002A08F2000A128A118A250A128A110D
:1007B800710883120313AD007008AC000A30F00012
:1007C8000030F1002D08F3002C08F2000A128A11FB
:1007D8004F260A128A11710883120313A7007008A2
:1007E800A6000A30F0000030F1002D08F3002C08B4
:1007F800F2000A128A118A250A128A118312031337
:1008080007102608FA007A07483E84008313000878
:1008180088002130FB007630FA00FA0B112CFB0B14
:10082800112C000083120313071487102408FA0000
:100838007A07483E8400831300088800881721300F
:10084800FB007630FA00FA0B272CFB0B272C000054
:1008580083120313871407112208FA007A07483E07
:1008680084008313000888002130FB007630FA00EA
:10087800FA0B3C2CFB0B3C2C0000831203130715CE
:1008880087112008FA007A07483E8400831300087D
:1008980088002130FB007630FA00FA0B512CFB0B54
:1008A800512C00008312031387150800F8007808FC
:1008B80003195F2C602C742CF31F632C642C742C8C
:1008C8007009FA007109FB007209FC007309FD0048
:1008D800FA0A0319FB0A0319FC0A0319FD0A7C2CFE
:1008E8007308FD007208FC007108FB007008FA002C
:1008F8007308720471047004031D832C842C8D2CDE
:100908000030F3000030F2000030F1000030F00059
:10091800112D9630F9009D2C0130FF007F08F90752
:1009280001300310FD0CFC0CFB0CFA0CFF3E031D00
:10093800952CFE307D05031DA22CA32C902CBF2CDA
:100948000130FF007F08F9070130FA07003003186B
:100958000130FB07003003180130FC070030031892
:100968000130FD0701300310FD0CFC0CFB0CFA0CE8
:10097800FF3E031DB72CFF307D05031DC42CC52C7D
:10098800A42CD12C0130F9020130F4000310FA0D27
:10099800FB0DFC0DFD0DF40BCA2CFC1BD42CD52C27
:1009A800DB2C023079020318DA2CDB2CC62C7918E0
:1009B800DE2CDF2CE72CFF30FA05FF30FB057F30FB
:1009C800FC05FF30FD050310F90C7908F400F5016A
:1009D800F601F70118300310F40DF50DF60DF70DBB
:1009E800FF3E031DEF2C7408FA047508FB04760813
:1009F800FC047708FD0478080319032D042D092D3C
:100A0800F31F072D082D092DFD177D08F3007C081D
:100A1800F2007B08F1007A08F00008000310831246
:100A280003133C0D3D0DC3004308031D1C2D1D2D54
:100A3800262D0030BD000030BC000030BB00003067
:100A4800BA00892D3A08BE003B08BF003C08C00028
:100A58003D08C1001F300310C10CC00CBF0CBE0CF8
:100A6800FF3E031D2F2D3E08C200BC17FF30BA05FC
:100A7800FF30BB05FF30BC050030BD059630C30212
:100A8800C31F472D482D622D4308803A973E03180F
:100A98004E2D4F2D502D1D2D01300310BD0CBC0CBB
:100AA800BB0CBA0CFF3E031D512D0130FF007F081F
:100AB800C307031D602D612D502D792D2030430271
:100AC800031C672D682D742D1D2D0130BE000310E9
:100AD800BA0DBB0DBC0DBD0DBE0B6B2D0130C30295
:100AE8004308031D782D792D692D420803197D2DA2
:100AF8007E2D892DBA09BB09BC09BD09BA0A03199B
:100B0800BB0A0319BC0A0319BD0A0800F501F11F45
:100B18008E2D8F2D962DF009F109F00A0319F10A8F
:100B2800F501F50AF31F992D9A2DA32DF209F30962
:100B3800F20A0319F30A0130FF007F08F506F601EF
:100B4800F701700871040319AA2DAB2DE22DF401E9
:100B5800F40AB92D01300310F00DF10DFF3E031D0D
:100B6800AF2D0130FF007F08F407F11FBC2DBD2D0C
:100B7800AE2D01300310F60DF70DFF3E031DBE2DFF
:100B880071087302031DCA2D70087202031CCD2D53
:100B9800CE2DD52D7008F2027108031CF303F30261
:100BA800761401300310F10CF00CFF3E031DD62D16
:100BB8000130F402031DE12DE22DBD2D7508031946
:100BC800E62DE72DEC2DF609F709F60A0319F70AC1
:100BD8007708F1007608F00008000C1FF42DF52DB9
:100BE800422E0C131E08DF00831603131E088312FF
:100BF8000313DE005E08F0005F08F1000030F11B0F
:100C0800FF30F200F30001300A128A115A240A1246
:100C18008A11730883120313A7007208A6007108CB
:100C2800A5007008A4004230A3004330A2004F3052
:100C3800A100F930A0000A128A112B200A128A1189
:100C4800831203132308BD002208BC002108BB003F
:100C58002008BA000A128A1112250A128A11831270
:100C680003133B08DD003A08DC005D08F9005C0866
:100C7800F8000A128A1170230A128A1183120313C8
:100C88004708FF0046088A0045088400440E830090
:100C9800FE0E7E0E0900F501F31F532E542E5B2E17
:100CA800F209F309F20A0319F30AF501F50AF11F2B
:100CB8005E2E5F2E642EF009F109F00A0319F10A7D
:100CC800700871040319692E6A2E992EF401F40A2A
:100CD800782E01300310F00DF10DFF3E031D6E2E2E
:100CE8000130FF007F08F407F11F7B2E7C2E6D2E4C
:100CF80071087302031D822E70087202031C852E70
:100D0800862E8C2E7008F2027108031CF303F3027E
:100D180001300310F10CF00CFF3E031D8D2E013045
:100D2800F402031D982E992E7C2E750803199D2E0A
:100D38009E2EA32EF209F309F20A0319F30A730887
:100D4800F1007208F0000800831603138801FF30D1
:100D58008312031385008801831603138701831206
:100D6800031387010A128A11FB260A128A110A1232
:100D78008A113C270A128A110A128A1142270A127A
:100D88008A11073083160313A1007C30A000A00B42
:100D9800CB2EA10BCB2E0000C02E0A128A111228CE
:100DA800F800F401F5017008F200F3017208F6008A
:100DB8007308F700781CE12EE22EE82E7608F40777
:100DC8000318F50A7708F50701300310F60DF70D3B
:100DD800FF3E031DE92E0310F80C7808031DF52EBD
:100DE800F62EDE2E7508F1007408F0000800831650
:100DF80003139E01831203139E019F171F179F164B
:100E08001F129F111F111F14831603139F171F13FF
:100E18009F179F111F119F101F10831203130C138C
:100E280008003F340034063400345B3400344F3457
:100E38000034663400346D3400347D3400340734B3
:100E480000347F3400346F3400347E088A007F0811
:100E580082000A128A1129270A128A118000840A3C
:100E680004087D0603190034FF0A0319FE0A2D2F12
:100E78008B170B17831603130C1708008312031321
:040E88001F1508002A
:02400E00793FF8
:00000001FF
